:020000040800F2
:10000000584C0020010100089B1A0008F317000853
:10001000991A0008610400084B1C00080000000049
:10002000000000000000000000000000E91A0008C5
:100030009B040008000000009D1A0008EB1A00084D
:100040001B0100081B0100081B0100081B01000820
:100050001B0100081B0100081B0100081B01000810
:100060001B0100081B0100081B01000865040008B3
:100070001B0100081B0100081B0100081B010008F0
:100080001B0100081B0100081B0100081B010008E0
:100090001B0100081B0100081B0100081B010008D0
:1000A0001B0100081B0100081B0100081B010008C0
:1000B0001B0100081B010008691B00081B01000848
:1000C0001B0100081B0100081B0100081B010008A0
:1000D0001B0100081B0100081B0100081B01000890
:1000E0001B0100081B0100081B010008DFF80CD0F1
:1000F00000F00CF90048004761230008584C00202C
:100100000648804706480047FEE7FEE7FEE7FEE7B1
:10011000FEE7FEE7FEE7FEE7FEE7FEE7671B0008F7
:10012000ED000008D2B201E000F8012B491EFBD21D
:1001300070470022F6E710B513460A4604461946F2
:10014000FFF7F0FF204610BDF0B480EA0102D40FA3
:100150004200B2EB410F02D20246084611464A0065
:1001600042D0C30DDDB2C1F3C752AD1A202D35DA2E
:10017000C1F3160141F4000204B15242C5F1200658
:1001800002FA06F12A411044B3EBD05F23D0C4B188
:10019000012DA0EBC35009DCF0BC4FF0004202EA95
:1001A000C352DBB200F5000000F081B8400000F15E
:1001B000807000EBC350A0F1807040EAD17049001C
:1001C00009E0490841EAC071A0EBC35000F5000006
:1001D000400800EBC350F0BC00F060B8614201225F
:1001E00002EB4101001BF6E7F0BC704781F00041D3
:1001F000AAE780F00040A7E7420005D0C0F3C7524D
:100200005242914201DC0020704700EBC150704720
:10021000C10F80EAE0700844CA079623002100F06D
:1002200046B896230022114600F041B800F0004283
:1002300020F00040C10DC0F3160040F400007F29FB
:1002400001DA00207047962903DCC1F19601C8400D
:1002500001E096398840002AF4D04042704720F0EF
:100260000040C10DC0F3160040F400007F2901DA00
:1002700000207047962903DCC1F19601C840704701
:100280009639884070470000002801DBC0F100402B
:10029000002901DBC1F10041884270470029A8BF55
:1002A0007047401C490008BF20F00100704710B49F
:1002B000B0FA80FC00FA0CF050EA010404BF10BC54
:1002C000704749B1CCF1200421FA04F411FA0CF181
:1002D00018BF012121430843A3EB0C01CB1D4FEABA
:1002E00000614FEA102042BF002010BC704700EBB5
:1002F000C35010440029A4BF10BC7047401C4900E3
:1003000008BF20F0010010BC70470000064C074DEC
:1003100006E0E06840F0010394E8070098471034D5
:10032000AC42F6D3FFF7E6FE3C8E00085C8E000878
:1003300070B5044600688168C943C9071CD181684B
:1003400021F00101816000F099FC05460FE000BF3B
:1003500000F094FC401B022809D9A06A40F010006C
:10036000A062E06A40F00100E062012070BD2068F8
:100370008068C043C007EBD0002070BD10B50146B7
:10038000406A826A12F0500F05D0006A026BBDE825
:10039000104008461047816A41F40071816201688B
:1003A0008968C1F3424107290CD1017B51B9816AA7
:1003B00021F480718162816AC90403D4816A41F0A9
:1003C0000101816200F0EAF810BD10B5406A816A4F
:1003D00041F040018162C16A41F00401C16200F054
:1003E000E9F810BD10B5406A00F0DEF810BD00005D
:1003F000F8B500260446009600688168C943C9071D
:1004000028D0816841F001018160134813490068D8
:10041000B0FBF1F000E0401E00900028FBD100F09E
:100420002DFC054611E000BF00F028FC401B02280F
:100430000BD9A06A40F01000A062E06A40F0010011
:10044000E06284F824600120F8BD20688068C04321
:10045000C007E9D10020F8BD1000002040420F0085
:10046000FEE70000014800F003BA0000144200203B
:1004700030B590F840500124AC40C56B6C60046806
:1004800063604368102B036803D099600068C26002
:1004900030BD9A600068C16030BD704772B6FEE73B
:1004A000F8B50024009490F824202546012A12D0A3
:1004B000012280F824204A681F23072A0DD20668EB
:1004C000776B521E02EB820293409F430B6893406E
:1004D0001F43776319E00220F8BD06680D2A0AD28F
:1004E000376BD21F02EB820293409F430B6893400D
:1004F0001F43376309E0F76A0D3A02EB820293402B
:100500009F430B6893401F43F7620A6807230668FE
:100510000A2A0AD3F7680A3A02EB420293409F4341
:100520008B6893401F43F76008E0376902EB420293
:1005300093409F438B6893401F4337610A68102A9A
:1005400001D0112A20D1124B02689A4217D1936828
:100550001B0219D4936843F40003936009681029BF
:1005600012D10C490C4A0968B1FBF2F101EB81018F
:10057000490000E0491E00910029FBD104E0816A96
:1005800041F020018162012480F824502046F8BD0A
:10059000002401401000002040420F00014801F0FB
:1005A0007FBA000014080020014801F079BA000069
:1005B00014000020704700002DE9F0414FF00007C3
:1005C00004003D467ED0A06A002628B9E66284F881
:1005D0002460204600F07EF82046FFF7A9FEA16ABD
:1005E000C90600D420B1A06A40F01000A06269E002
:1005F000A16A21F4885141F00201A1626268E169B7
:10060000237B0A4347EA43010A43A1684FF48077FA
:10061000B94209D0012907D05FF0000194F814C055
:10062000BCF1010F02D00AE03946F7E7F3B1A36A43
:1006300043F02003A362E36A43F00103E36223680B
:10064000D3F804C02CF4694C4CEA010CC3F804C084
:1006500021688B68DFF870C003EA0C0313438B60DA
:10066000A168B9420BD0012909D00CE0DFF85CC0C9
:10067000A3690CEB43330B4343F40061DFE7218AAA
:100680000D05A5F580152168CB6A23F470032B4373
:10069000CB62216889680E4B1940914208D1E6620D
:1006A000A16A21F0020141F00101A162BDE8F081DF
:1006B000A06A20F0020040F01000A062E06A40F062
:1006C0000100E0620120F1E7FDF7E1FF00E0FFFF3C
:1006D000FE0E1FFF70B586B00025064600950195F9
:1006E0000295039500681A4988422ED119498869F4
:1006F00040F400708861886900F400700490886993
:1007000040F0040088618869694600F004000490A4
:1007100001200090032001900F4800F0B9F9104C1F
:100720000E48C4E900058020C4E902504000206161
:10073000800060612020C4E90605204600F042F9EF
:1007400008B1FFF7ABFE3462666206B070BD000010
:10075000002401400010024000080140080002404F
:10076000144200202DE9F047894604463B490068C1
:100770003B4F0E1D9046884201D0B84207D13068E9
:1007800010F4702F03D001252846BDE8F08794F8B7
:10079000240001280CD0012084F824002046FFF713
:1007A00027FE05004FF0000004D084F82400EBE79A
:1007B0000220EAE7A16A40F60162914341F48071A8
:1007C000A1622168B94218D1326812F4702F14D096
:1007D000A16A41F48011A1623168490505D5A16A79
:1007E00021F4005141F48051A162A16AC9040AD5E3
:1007F000E16A21F00601E16206E0A26A22F48012B9
:10080000A2624968E9E7E06284F82400216A154899
:100810008862216A1448C862216A14480863216802
:100820006FF0020008602068816841F48071816087
:10083000216843464A464C31206A00F0F1F82068AE
:100840008168C1F342410729816803D041F48011D6
:10085000816099E741F4A001FAE70000002401401B
:10086000002801407D030008E5030008CB030008D1
:100870002DE9F05FC16B0C6801680B68D0F840C0CF
:10088000042202FA0CF2494DDFF824A1494E4A4FE6
:10089000DFF828B1DFF828E122422CD05A072AD508
:1008A0000A68920603D40A6822F004020A6001680A
:1008B000A94201D1042219E0514501D1402215E09D
:1008C000B14202D14FF4806210E0B94202D14FF43C
:1008D00080420BE0594502D14FF4802206E0714579
:1008E00002D14FF4800201E04FF080622F490839B5
:1008F0004A60C16A3BE04FF0020808FA0CF818EAB7
:10090000040F4FF000094FF0010235D05FEA837801
:1009100032D50B689B0605D40B6823F00A030B60E5
:1009200080F821200168A94201D1022219E0514535
:1009300001D1202215E0B14202D14FF4007210E043
:10094000B94202D14FF400520BE0594502D14FF4A5
:10095000003206E0714502D14FF4001201E04FF081
:100960000072124908394A6080F82090816A002993
:100970001AD0BDE8F05F0847082505FA0CF52542B6
:1009800012D01B0710D50B6823F00E030B6090F8F4
:100990004010C36B02FA01F15960826380F8212094
:1009A00080F82090016BE2E7BDE8F09F080002406C
:1009B0001C00024030000240440002405800024047
:1009C0006C00024030B528B308C8134914221944FA
:1009D000B1FBF2F18900C1631049816302214177C3
:1009E0001A6843F6F0718A43D0E900142143D0E934
:1009F00002452C432143046921434469214384690E
:100A0000214311431960002141630122427701779C
:100A1000084630BD012030BDF8FFFDBF0000024098
:100A200070B5044690F82000002501280CD0012064
:100A300084F8200094F821600020012E06D084F86C
:100A400020000225284670BD022070BD022684F8D1
:100A50002160A0632068066826F001060660204633
:100A6000FFF706FDE06A00282068016802D041F027
:100A70000E0106E021F0040101602068016841F0E8
:100A80000A0101602068016841F001010160D9E7B5
:100A90002DE9F84FDFF8B891002409F1040A0AF1B2
:100AA000040B23460F270BF1040EC9E00125A540D6
:100AB0002A40AA427DD1674ED1F804C0ACEB0608AB
:100AC000B44532D014DCBCF1030F3AD009DCBCF1E0
:100AD000000F2AD0BCF1010F1CD0BCF1020F31D1A4
:100AE0001DE0BCF1110F17D0BCF1120F2AD119E093
:100AF000B8F5881F19D006DCB8F5803F15D0B8F5D9
:100B0000801F1FD111E0B8F5001F0ED0B8F5041FEB
:100B100018D10AE0CB6815E0CB681B1D12E0CB684A
:100B200008330FE0CB680C330CE08B682BB1012B42
:100B30004FF0080303D0456104E0042302E005619F
:100B400000E00023FF2A01D8064601E000F1040678
:100B50004FEA840501D9A5F12005D6F8008007FAEF
:100B600005FC28EA0C0803FA05F548EA0508C6F86A
:100B700000804D68ED0062D5374DAE6946F0010644
:100B8000AE61AD6924F0030605F001050095334D13
:100B900006EB050CDCF80850A607360F07FA06F836
:100BA00025EA0805DFF8B880404503D14FF000087A
:100BB00017E044E0DFF8AC80404502D14FF0010877
:100BC0000FE0DFF8A480404502D14FF0020808E0B2
:100BD000DFF89880404502D14FF0030801E04FF064
:100BE000040808FA06F848EA0508CCF808804D68B9
:100BF000D9F80060ED034D4601D5164300E0964359
:100C00002E604D68DAF80060AD03554601D51643F5
:100C100000E096432E604D68DBF80060ED025D4613
:100C200001D5164300E096432E604D68DEF8006063
:100C3000AD02754601D5164300E096432E60641C54
:100C40000D682A46E5407FF431AFBDE8F88F00001B
:100C5000000401400000111000100240000001409B
:100C600000080140000C0140001001400014014048
:100C70000AB1016170470904FBE700000148806880
:100C80007047000004000020024881680278114487
:100C90008160704704000020074810B5016841F0EA
:100CA00010010160032000F075F8002000F006F844
:100CB00000F024F8002010BD0020024070B50D4D5A
:100CC00004464FF47A712878B1FBF0F00A490968BC
:100CD000B1FBF0F000F042FB48B9102C07D2002223
:100CE0002146501E00F036F800206C6070BD0120D7
:100CF00070BD000004000020100000200C4808B562
:100D0000816941F001018161816901F00101009176
:100D1000C16941F08051C161C06900F0805000900C
:100D20000448416821F0E06141F00071416008BD74
:100D30000010024000000140002809DB00F01F0203
:100D4000012191404009800000F1E020C0F800112D
:100D500070470000F0B40E4B1B680C46C3F302232F
:100D6000C3F10705042D00D90425191D072901D257
:100D7000002300E0DB1E012606FA05F1491E214092
:100D800099409E40761E16403143F0BC00F05EBF95
:100D90000CED00E0064900F0070208684FF6FF037B
:100DA000184040EA0220034A1043086070470000E0
:100DB0000CED00E00000FA052DE9F8430546007847
:100DC000354CC00754D0E0690026C00008D4E06963
:100DD00040F08050E061E069012600F08050009012
:100DE0002E480168C90512D40168804641F480711B
:100DF0000160FFF743FF074605E000BFFFF73EFF36
:100E0000C01B642823D8D8F80000C005F6D5206A96
:100E100010F4407021D0A98801F4407181421CD0A7
:100E2000206A1F49012220F440700A6000220A60F3
:100E30002062C00711D0FFF721FF074641F2883832
:100E400008E000BFFFF71AFFC11B414502D903208C
:100E5000BDE8F883206A8007F4D5206A696820F429
:100E60004070084320621EB1E06920F08050E061CC
:100E70002878800705D56068A96820F440400843B9
:100E800060602878C00605D56068E96820F48000B5
:100E9000084360600020DBE7001002400070004063
:100EA000400442422DE9F0470F46050061D0434E11
:100EB000306800F00700B84209D2306820F007001F
:100EC00038433060306800F00700B84251D12868DC
:100ED0003B4C810712D5400703D5606840F4E060C1
:100EE00060602878000703D5606840F46050606057
:100EF0006068A96820F0F000084360602878C007A7
:100F000028D06868012810D02168022810D08907ED
:100F100000292EDA616821F0030101436160FFF7C7
:100F2000ADFE804641F288390DE021688903EFE784
:100F30008901EDE7FFF7A2FEA0EB0801494502D9C0
:100F40000320BDE8F0876068696800F00C00B0EB32
:100F5000810FEFD1306800F00700B8420BD930683C
:100F600020F0070038433060306800F00700B842D6
:100F700001D00120E5E72878400705D56068E968D9
:100F800020F4E060084360602878000706D56068B8
:100F9000296920F4605040EAC100606000F018F850
:100FA0006168084AC1F30311515CC84006490860F2
:100FB00006480068FFF782FE0020C2E700200240DA
:100FC000001002402C8E00081000002008000020B5
:100FD00012A185B00FC98DE80F0014A0144A006853
:100FE00004905168134801F00C03042B10D0082B17
:100FF0000ED1C1F38343C9031DF803000AD551681C
:1010000004AAC1F34041515C0A4A5043B0FBF1F0DD
:1010100005B0704708494843FAE700000203040599
:10102000060708090A0B0C0D0E0F10100102000034
:101030000010024000127A0000093D002DE9F84F2F
:10104000040070D02078C04DC00749D06868C0F354
:101050008100012807D06868C0F38100022809D107
:101060006868C00306D52868800339D56068002801
:10107000E7D035E06068B0F5803F0BD010B1B0F537
:10108000A02F11D0286820F480302860286820F430
:10109000802002E0286840F480302860606890B1C9
:1010A000FFF7ECFD06460AE0286840F4802028603F
:1010B000F0E700BFFFF7E2FD801B642873D82868C3
:1010C0008003F7D50CE0FFF7D9FD064605E000BF29
:1010D000FFF7D4FD801B6428F0D828688003F7D47C
:1010E00020789A4E80074FF001094FF0000839D55B
:1010F000686810F00C0F07D06868C0F38100022800
:1011000009D16868C00306D42868800714D520690F
:10111000012808D110E02069B0B1C6F80090FFF7AF
:10112000ADFD074605E00AE1FFF7A8FDC01B022858
:10113000C4D828688007F7D52868616920F0F800CE
:1011400040EAC10028600DE0C6F80080FFF796FD78
:10115000074604E0FFF792FDC01B022823D8286849
:101160008007F7D4207800072CD57948A169D9B138
:10117000C0F80090FFF782FD074604E0FFF77EFD10
:10118000C01B02280FD8686A8007F7D571484FF452
:10119000FA510068B0FBF1F0009000BF0098411ECA
:1011A0000091FAD20EE080E0C0F80080FFF766FD03
:1011B000074604E0FFF762FDC01B022875D8686A85
:1011C0008007F7D42078400760D5E8690027C00081
:1011D00008D4E86940F08050E861E869012700F030
:1011E000805000905C480168C90513D401688346AB
:1011F00041F480710160FFF741FD824606E000BFC7
:10120000FFF73CFDA0EB0A0064284ED8DBF8000095
:10121000C005F5D5E06801280AD008B1052813D02B
:10122000286A20F001002862286A20F0040002E009
:10123000286A40F001002862E06841F2883B98B1DA
:10124000FFF71CFD82460BE0286A40F0040028628C
:10125000EEE700BFFFF712FDA0EB0A0159455AD88F
:10126000286A8007F6D50CE0FFF708FD824605E006
:10127000FFF704FDA0EB0A0159454CD8286A800706
:10128000F6D41FB1E86920F08050E861E06988B3C6
:101290006968C1F38101022944D00228C6F8608040
:1012A00004D0FFF7EBFC044638E034E0FFF7E6FC3F
:1012B000074604E0FFF7E2FCC01B02282BD8286891
:1012C0008001F7D4206AB0F5803F05D16868A16835
:1012D00020F4003008436860D4E9080108436968D5
:1012E00021F4741108436860C6F86090FFF7C6FCEB
:1012F000044606E025E000BFFFF7C0FC001B022803
:1013000009D828688001F7D51BE000BFFFF7B6FCBD
:10131000001B022802D90320BDE8F88F286880014D
:10132000F4D40EE00128F7D06868226A00F4803116
:10133000914204D1616A00F47010884201D001200A
:10134000EAE70020E8E70000001002400000424207
:1013500080044242100000200070004010B5401E82
:10136000B0F1807F01D3012010BD4FF0E024606117
:101370000F21601700F06AFC0020A06107202061A7
:10138000002010BD7047704770B590F83C20012ACE
:1013900026D0012480F83C40022280F83D200368DA
:1013A0005A689D6822F070060A6832435A600D4BF5
:1013B00002689A4208D0B2F1804F05D00A4B9A4297
:1013C00002D00A4B9A4204D1496825F080031943A0
:1013D000916080F83D40002180F83C10084670BDC7
:1013E000022070BD002C01400004004000080040B5
:1013F00010B5040003D094F83D0010B107E00120BF
:1014000010BD002084F83C00204600F01FF80220A8
:1014100084F83D00211D206800F0ACFB012084F819
:10142000460084F83E0084F83F0084F8400084F8C9
:10143000410084F8420084F8430084F8440084F8B2
:10144000450084F83D00002010BD000008B5114A99
:1014500001681148914208D1C16941F00201C1619E
:10146000C06900F00200009008BD0C4A9142FBD117
:10147000C16941F00401C161C069002200F00400AB
:10148000009003211E20FFF765FCBDE808401E20E8
:10149000FFF752BC0004004000100240000800406A
:1014A00090F83D10012901D001207047022180F8F9
:1014B0003D1000680B49884208D0B0F1804F05D03C
:1014C0000949884202D00949884204D1816801F063
:1014D0000701062903D0016841F0010101600020E5
:1014E00070470000002C014000040040000800404C
:1014F00090F83D10012901D001207047022180F8A9
:101500003D100168CA6842F00102CA6000680B49D8
:10151000884208D0B0F1804F05D00949884202D0F6
:101520000849884204D1816801F00701062903D0E7
:10153000016841F00101016000207047002C01406A
:10154000000400400008004070B5044690F83C00DC
:10155000012817D0012584F83C50022084F83D0072
:101560002068826822F0770222F47F428260086855
:10157000502830D00DDC20284DD005DC98B3102841
:101580003BD148E0022070BD302844D0402834D1FF
:1015900039E0602828D0702806D0B0F5805F2CD0C4
:1015A000B0F5005F29D10AE0CB68D1E901212068BC
:1015B00000F016FB2068816841F0770109E0CB68F4
:1015C000D1E90121206800F00BFB2068816841F41B
:1015D0008041816011E0CA684968206800F012FB10
:1015E0005021206807E016E0CA684968206800F0CA
:1015F0001AFB6021206800F0FDFA84F83D500020BD
:1016000084F83C0070BDCA684968206800F0FAFAA6
:1016100040212068EFE7226801461046EBE770475B
:1016200070B50446006801694FF00005C943890799
:1016300015D4C168C943890711D4E91E016101208D
:101640002077206880698007204602D0FFF7E7FFF7
:1016500004E000F098F8204600F096F8257720681E
:101660000169C943490717D4C168C943490713D45D
:101670006FF004010161022020772068806910F476
:10168000407F204602D0FFF7CAFF04E000F07BF85D
:10169000204600F079F8257720680169C9430907D9
:1016A00016D4C168C943090712D46FF0080101615B
:1016B000042020772068C0698007204602D0FFF709
:1016C000AEFF04E000F05FF8204600F05DF82577FB
:1016D00020680169C943C90617D4C168C943C9064E
:1016E00013D46FF010010161082020772068C069D1
:1016F00010F4407F204602D0FFF791FF04E000F095
:1017000042F8204600F040F8257720680169C94377
:10171000C90708D1C168C943C90704D1891E01613D
:10172000204600F033F820680169C943090609D44E
:10173000C168C943090605D46FF0800101612046E4
:10174000FFF720FE20680169C943490609D4C16832
:10175000C943490605D46FF040010161204600F0FD
:1017600047F820680169C94389060BD4C168C94399
:10177000890607D46FF0200101612046BDE8704062
:10178000FFF701BE70BD70477047000030B5144AC6
:101790004FF47E001060134B4FF4E02018601349A3
:1017A000114C114D48786435245C55F8245015606F
:1017B0000D4D9C3555F824401C60A5F1880454F863
:1017C00020401460A5F1600252F820201A60401CED
:1017D000C0B248700A2801D30020487030BD000014
:1017E00010080140100C0140304100200000002092
:1017F0007047FEE7F0B53A48042102270122016054
:10180000C0E90172C0E9081700F10C0C80224023E6
:101810002024102508268CE87C00CF0100F150011F
:1018200001F1080C0F6057004F608CE87C00120239
:10183000CA61D210203153108CC100F1280461E834
:101840000B2392104A63002250F8223043F47E05A5
:1018500054F8223005F0FE0625EA064543F4E0235D
:1018600040F8225003F0070523EA054344F82230EC
:10187000521C0A2AE8DB1A4A002041F6F873883223
:101880001F0415E0002411E051F8246051F82050A5
:101890001E40354341F8205032F8246052F8205061
:1018A00006F41946354342F82050641C8442EBDBB1
:1018B00051F8204052F820503C4304EA030624EA41
:1018C000064445F0194541F8204005F4194425EA3D
:1018D000044442F82040401C0E28D3DBF0BD000039
:1018E000444100203EB50024114800940194029424
:1018F0000E4984600160047304754FF40021C161D6
:101900000125091205614160FEF756FE08B172B665
:10191000FEE7CDE90045694605480294FEF7C0FDA3
:10192000002801D072B6FEE73EBD00000024014051
:10193000144000202DE9F04186B000242148009495
:10194000019402940394816941F0200181618169CD
:1019500001F020010491816941F0040181618169F4
:1019600001F004010491816941F0080181618069FD
:10197000154F00F0080049F6FE1504900022294694
:101980003846FFF775F9DFF8448041F6FF7600220C
:1019900031464046FFF76CF90220CDE90240009540
:1019A0000125694601953846FFF772F80320CDE915
:1019B0000240CDE9006569464046FFF769F806B088
:1019C000BDE8F0810010024000080140000C014019
:1019D00010B586B000241648009401940294039434
:1019E000049412490594C0E9001440F6C901C0E905
:1019F000024104618461FFF7FBFC08B172B6FEE7A7
:101A00004FF48050009069460948FFF79DFD08B1EA
:101A100072B6FEE7049404A905480594FFF7B4FCE8
:101A2000002801D072B6FEE706B010BD00040040E9
:101A30004440002010B586B000241648009401945C
:101A400002940394049412490594C0E9001440F2EE
:101A5000CF21C0E9024104618461FFF7C9FC08B1EC
:101A600072B6FEE74FF48050009069460948FFF7D0
:101A70006BFD08B172B6FEE7049404A9054805940D
:101A8000FFF782FC002801D072B6FEE706B010BD59
:101A9000000800408C400020FEE7FEE77047000091
:101AA000F0B50F4B1878002818D100210D4D0846CD
:101AB0000C4605F580524FF4806600BF35F8117072
:101AC000491CA7F500473F0442F82070401C42F82B
:101AD0002040401CB142F1DB01201870F0BD000035
:101AE00000000020140000207047FFF7CDB830B58B
:101AF00093B028216846FEF71CFB14210AA8FEF7C4
:101B000018FB002501200F951095119501041295E1
:101B10008DE8230004904FF4E010CDE90810022472
:101B200007946846FFF78AFA08B172B6FEE70AA979
:101B30000F2081E831004FF48060CDE90D050221CE
:101B40000AA8FFF7AFF908B172B6FEE74FF40040FC
:101B500011900F940FA8FFF72FF9002801D072B64B
:101B6000FEE713B030BD70470148FFF759BD0000D4
:101B70008C400020F0B50268164B174C174D4FF003
:101B80008047984205D0B84203D0A04201D0A84275
:101B900003D122F070064A683243984205D0B84219
:101BA00003D0A04201D0A84203D122F44074CA68F5
:101BB00022434C6922F08002224302608A68C2629A
:101BC0000A688262984201D1096901630121416179
:101BD000F0BD0000002C014000040040000800405F
:101BE00010B5846842EA032224F47F440A43224366
:101BF000826010BD826822F070020A4342F0070141
:101C00008160704710B5036A046A24F0010404621D
:101C1000846924F0F00444EA021423F00A020A431F
:101C20008461026210BD10B5036A23F010030362E1
:101C30008369046A23F4704343EA023224F0A00368
:101C400043EA01118261016210BDFEE70907090E36
:101C5000002804DB00F1E02080F80014704700F059
:101C60000F0000F1E02080F8141D704702E008C862
:101C7000121F08C1002AFAD170477047002001E006
:101C800001C1121F002AFBD170472DE9F04792468F
:101C9000012400224D0804EB51061146AC1E45E01C
:101CA00091422AD250F8317050F832C040F831C019
:101CB00040F8327000EBC10C00EBC207DCF8049076
:101CC000D7F80480CCF80480C7F804908F1902EB91
:101CD000060C50F8379050F83C8040F8378040F8B8
:101CE0003C9000EBC70700EBCC0CD7F80490DCF875
:101CF0000480C7F80480CCF8049000EBC1072A44A4
:101D0000D7F808C050F83280C7F8088040F832C0D1
:101D100000EBC202D7F80CC0D2F80480C7F80C80E0
:101D2000C2F804C01A8803EB4A03891CA142B7D940
:101D3000BDE8F08730B501802B4D456082700024EE
:101D40004FF48072C370914231D008DC102946D024
:101D500020293ED0402936D080290CD12DE0B1F584
:101D6000007F1ED0B1F5806F15D0B1F5006F0BD09C
:101D7000B1F5805F03D04FF0FF34204630BD012124
:101D80008181C181194904E002218181C181174902
:101D9000891C8160F1E704218181C1811349891D7A
:101DA000F7E708218181C18110490E31F1E7102147
:101DB0008181C1810D491E31EBE720218181C181E3
:101DC0000A493E31E5E740218181C18107497E31E1
:101DD000DFE780218181C1810449FE31D9E7828119
:101DE000C2810349D5E700002C2E00082C260008EC
:101DF0002A28000870B5044680780D462188A389FA
:101E000062680128284609D000F030F9E28921886B
:101E10002846A368BDE87040FFF737BF00F019F807
:101E2000F4E7000070B50E46044615460EE000BF0C
:101E3000F4E8020180FB002081FB01214A103146B9
:101E4000361D02EB600000F01BFA6D1E002DEFD175
:101E500070BD2DE9FF4F8946490885B00024224610
:101E6000029153E0079B02EB010A53F8346003EB45
:101E7000C403D3F804B0089B1C4450F832305D1002
:101E800050F83A30A5EB630705EB63035B1040F8AD
:101E9000323000EBC2030193D3F804E000EBCA0533
:101EA00000956B684FEA6E08A8EB63054FEA630C78
:101EB0000CEB6E034FEA630C019B4FF00048C3F834
:101EC00004C087FB063C13EB080385FB06634CF15B
:101ED00000084FF0004C16EB0C0685FB0B5C43F141
:101EE000000E0026751B68EB0C034FF0004C15EB41
:101EF0000C0543F1000516EB0C064EF10003C7FB81
:101F00000B6340F83A50009D521C6B608A42A9D383
:101F1000089A4FF6FF7303EA42020892029A64E0BD
:101F200001914FF0000A4908544654E0079A089B73
:101F300052F83AB002EBCA029A44D2F804E02246C0
:101F400046E0561850F8323050F8365000EBC208D0
:101F50005F1B2B445B1040F8323000EBC605D8F80D
:101F600004300295D5F804C0A3EB0C0563444FEA96
:101F7000630CC8F804C087FB0BC34FF000481CEB90
:101F8000080C43F10003049385FB0BC31CEB080C06
:101F900085FB0EC843F1000303930025049BB5EBBA
:101FA0000C0C63EB08034FF000481CEB080C43F1EA
:101FB000000C039B15EB080543F10003C7FB0E5310
:101FC000CDF810C040F836C0029D6B60019B1A44EA
:101FD0004A45B6D3641C8C42A8D3089B4FF6FF72C7
:101FE00002EA43020892009A52080092022A97D805
:101FF0004C08002235E0131950F8326050F8335085
:1020000000EBC20CA6EB050A354440F8325000EB59
:10201000C306DCF8047075680A44A7EB05083D4464
:10202000CCF8045040F833A01319C6F8048050F8D7
:10203000326050F8337000EBC20CF519A6EB070ABA
:1020400040F8325000EBC306DCF8047075680A44AF
:10205000A7EB05083D44CCF8045040F833A0C6F87F
:1020600004804A45C7D309B0BDE8F08F2DE9FF4F82
:1020700085B00699490800248E4622464FE0079B0A
:1020800002EB010900EBC20B53F8345003EBC4031D
:1020900050F839605F68089B1C4450F832304FEAB2
:1020A000630C0CEB66035B10ACEB660A40F8323055
:1020B000DBF8043000EBC9060096D6F804C04FEAFE
:1020C0006308A8EB6C064FEA6C0C0CEB63034FEA59
:1020D000630CCBF804C08AFB05C34FF000481CEB2F
:1020E000080C86FB05C543F100031CEB080C45F109
:1020F000000B002515EB080843F1000CC6FB078C0C
:102100008AFB0736EB1A6BEB06084FF0004540F8E8
:1021100039C05B19009E48F10003521C73608A426B
:10212000ADD3089A4FF6FF7303EA420208920A46BB
:1021300064E0019149080022029254E0029B079A50
:10214000069C52F833A002EBC302D2F804B0089AFE
:102150001A44019B0292B4FBF3F77246561850F8EA
:10216000324050F836506319A4EB05095B1000EBC0
:10217000C20440F8323000EBC605636803956D6811
:10218000A3EB050C2B445B10636089FB0A434FF003
:10219000004564198CFB0A5843F100044FF00043DA
:1021A000EB1848F1000300254FF0004815EB080834
:1021B00044F10004CCFB0B8489FB0BC80493B5EB02
:1021C0000C0563EB08034FF0004C15EB0C0540F8D1
:1021D0003640039D43F100037F1E6B60019B1A4450
:1021E000BCD10EF1010296468A42A7D3089A4FF657
:1021F000FF7303EA42020892009A52080092022AF0
:1022000097D84C08002235E0131950F8326050F886
:10221000335000EBC20CA6EB0509354440F83250B0
:1022200000EBC306DCF8047075680A44A7EB0508E8
:102230003D44CCF8045040F833901319C6F804809C
:1022400050F8326050F8337000EBC20CF519A6EB71
:10225000070940F8325000EBC306DCF804707568DB
:102260000A44A7EB05083D44CCF8045040F83390ED
:10227000C6F80480069B9A42C6D309B0BDE8F08F29
:102280002DE9F041021E0D464FF0FF3063DDB2FA3A
:1022900082F0441EC007B0F1004F59D0601E02FA10
:1022A00000F046100746FDF7B3FF6FF01E01FDF783
:1022B000A3FF2A49A1EB60001E21FDF79DFFFDF75A
:1022C000B5FF80FB0012C90F41EA420181FB0612F3
:1022D000C90F41EA4201C1F1405180FB0101C00F29
:1022E00040EA4100800080FB0012C90F41EA420130
:1022F00081FB06214B0043EAD271C1F1405180FBC2
:102300000101C00F40EA4100800080FB00214B002A
:1023100043EAD27181FB0612C90F41EA4201C1F1C1
:10232000405180FB0101C00F40EA4100810087FB62
:102330000101C00F40EA41004000E10700D0641EE7
:1023400004EBD4714910084128600020BDE8F081F9
:1023500002FA04F0A5E700212960F7E7DF59375FAB
:1023600008B5FEF799FCFFF7C2FBFFF7E3FAA548B3
:10237000416941F0010141614069002200F0010022
:10238000009005210B20FEF7E5FC0B20FEF7D4FCA6
:10239000FFF7A8FAFFF71CFBFFF74CFBFFF72AFA41
:1023A0000123002299029848FFF7C4FC9748FFF7E1
:1023B0009FF897494FF4006201F58040FEF7D2F98B
:1023C00092484838FFF76CF8DFF848B24FF0000A3F
:1023D0000BF5865707F1660807F134068E4C207816
:1023E0000028FBD08D498848FFF704FD4FF4806238
:1023F00088498A48FFF716FD504684F800A0C7F8C0
:1024000000A0DBF804105A46002900DD396078602E
:102410009168002900DD796002230321C7F80800D4
:1024200052F8214057F82350AC4201DD47F82340D1
:10243000491C0429F4DD03230521F86052F82140EA
:1024400057F82350AC4201DD47F82340491C0829C6
:10245000F4DD04230921386152F8214057F8235054
:10246000AC4201DD47F82340491C1229F4DD052365
:102470001321786152F8214057F82350AC4201DD16
:1024800047F82340491C2329F4DD06232421B861A1
:1024900052F8214057F82350AC4201DD47F8234061
:1024A000491C3929F4DD07233A21F86152F821400B
:1024B00057F82350AC4201DD47F82340491C9529C9
:1024C000F4DD082396214FF4957C386252F82140C0
:1024D00057F82350AC4201DD47F82340491C6145C1
:1024E000F4DD82467862092140F22B104FF400742B
:1024F00052F8203057F82150AB4201DD47F8213027
:10250000401CA042F4DB414D00244FF0AF49703530
:1025100057F82400484501DB0D203AE0B0F17A5F1E
:1025200001DB0C2035E0B0F1355F01DB0B2030E042
:10253000B0F1005F01DB0A202BE0B0F1B65F01DBF8
:10254000092026E0B0F1805F01DB082021E0B0F136
:10255000386F01DB07201CE0B0F1006F01DB0620C3
:1025600017E0B0F1B86F01DB052012E0B0F1806F29
:1025700001DB04200DE0B0F1307F01DB032008E037
:102580002749884201DB022003E02649884202DB1A
:102590000120285502E0504605F804A0C0B2FDF71E
:1025A00040FE56F82410FDF76FFE08D2285DFDF7B7
:1025B00038FE46F82400032008F8040005E018F867
:1025C000041091B1491E08F80410641C0A2C9FDB0A
:1025D0000E4D002415F1A40556F82400FDF73FFE2A
:1025E0002855641C0A2CF7DBF8E656F824000E493F
:1025F000FDF7FCFD46F8240010F1FF4FE5D346F847
:1026000024A0E2E700100240044200208C40002099
:1026100014000020143000200000002014100020BE
:102620000000060200006D01CDCC4C3E000400020B
:1026300000060001000500030007800080048002FE
:10264000800680018005800380074000400440022E
:1026500040064001400540034007C000C004C002DE
:10266000C006C001C005C003C0072000200420022E
:1026700020062001200520032007A000A004A002BE
:10268000A006A001A005A003A007600060046002EE
:1026900060066001600560036007E000E004E0029E
:1026A000E006E001E005E003E0071000100410027E
:1026B00010061001100510031007900090049002FE
:1026C000900690019005900390075000500450022E
:1026D00050065001500550035007D000D004D002DE
:1026E000D006D001D005D003D0073000300430022E
:1026F00030063001300530033007B000B004B002BE
:10270000B006B001B005B003B007700070047002ED
:1027100070067001700570037007F000F004F0029D
:10272000F006F001F005F003F007080008040802C5
:1027300008060801080508030807880088048802BD
:1027400088068801880588038807480048044802ED
:1027500048064801480548034807C800C804C8029D
:10276000C806C801C805C803C807280028042802ED
:1027700028062801280528032807A800A804A8027D
:10278000A806A801A805A803A807680068046802AD
:1027900068066801680568036807E800E804E8025D
:1027A000E806E801E805E803E8071800180418023D
:1027B00018061801180518031807980098049802BD
:1027C00098069801980598039807580058045802ED
:1027D00058065801580558035807D800D804D8029D
:1027E000D806D801D805D803D807380038043802ED
:1027F00038063801380538033807B800B804B8027D
:10280000B806B801B805B803B807780078047802AC
:1028100078067801780578037807F800F804F8025C
:10282000F806F801F805F803F807040004040402A8
:1028300004060401040504030407840084048402DC
:10284000840684018405840384074400440444020C
:1028500044064401440544034407C400C404C402BC
:10286000C406C401C405C403C4072400240424020C
:1028700024062401240524032407A400A404A4029C
:10288000A406A401A405A403A407640064046402CC
:1028900064066401640564036407E400E404E4027C
:1028A000E406E401E405E403E4071400140414025C
:1028B00014061401140514031407940094049402DC
:1028C000940694019405940394075400540454020C
:1028D00054065401540554035407D400D404D402BC
:1028E000D406D401D405D403D4073400340434020C
:1028F00034063401340534033407B400B404B4029C
:10290000B406B401B405B403B407740074047402CB
:1029100074067401740574037407F400F404F4027B
:10292000F406F401F405F403F4070C000C040C02A3
:102930000C060C010C050C030C078C008C048C029B
:102940008C068C018C058C038C074C004C044C02CB
:102950004C064C014C054C034C07CC00CC04CC027B
:10296000CC06CC01CC05CC03CC072C002C042C02CB
:102970002C062C012C052C032C07AC00AC04AC025B
:10298000AC06AC01AC05AC03AC076C006C046C028B
:102990006C066C016C056C036C07EC00EC04EC023B
:1029A000EC06EC01EC05EC03EC071C001C041C021B
:1029B0001C061C011C051C031C079C009C049C029B
:1029C0009C069C019C059C039C075C005C045C02CB
:1029D0005C065C015C055C035C07DC00DC04DC027B
:1029E000DC06DC01DC05DC03DC073C003C043C02CB
:1029F0003C063C013C053C033C07BC00BC04BC025B
:102A0000BC06BC01BC05BC03BC077C007C047C028A
:102A10007C067C017C057C037C07FC00FC04FC023A
:102A2000FC06FC01FC05FC03FC0702000204020298
:102A300002060201020502030207820082048202EA
:102A4000820682018205820382074200420442021A
:102A500042064201420542034207C200C204C202CA
:102A6000C206C201C205C203C2072200220422021A
:102A700022062201220522032207A200A204A202AA
:102A8000A206A201A205A203A207620062046202DA
:102A900062066201620562036207E200E204E2028A
:102AA000E206E201E205E203E2071200120412026A
:102AB00012061201120512031207920092049202EA
:102AC000920692019205920392075200520452021A
:102AD00052065201520552035207D200D204D202CA
:102AE000D206D201D205D203D2073200320432021A
:102AF00032063201320532033207B200B204B202AA
:102B0000B206B201B205B203B207720072047202D9
:102B100072067201720572037207F200F204F20289
:102B2000F206F201F205F203F2070A000A040A02B1
:102B30000A060A010A050A030A078A008A048A02A9
:102B40008A068A018A058A038A074A004A044A02D9
:102B50004A064A014A054A034A07CA00CA04CA0289
:102B6000CA06CA01CA05CA03CA072A002A042A02D9
:102B70002A062A012A052A032A07AA00AA04AA0269
:102B8000AA06AA01AA05AA03AA076A006A046A0299
:102B90006A066A016A056A036A07EA00EA04EA0249
:102BA000EA06EA01EA05EA03EA071A001A041A0229
:102BB0001A061A011A051A031A079A009A049A02A9
:102BC0009A069A019A059A039A075A005A045A02D9
:102BD0005A065A015A055A035A07DA00DA04DA0289
:102BE000DA06DA01DA05DA03DA073A003A043A02D9
:102BF0003A063A013A053A033A07BA00BA04BA0269
:102C0000BA06BA01BA05BA03BA077A007A047A0298
:102C10007A067A017A057A037A07FA00FA04FA0248
:102C2000FA06FA01FA05FA03FA0706000604060294
:102C300006060601060506030607860086048602C8
:102C400086068601860586038607460046044602F8
:102C500046064601460546034607C600C604C602A8
:102C6000C606C601C605C603C607260026042602F8
:102C700026062601260526032607A600A604A60288
:102C8000A606A601A605A603A607660066046602B8
:102C900066066601660566036607E600E604E60268
:102CA000E606E601E605E603E60716001604160248
:102CB00016061601160516031607960096049602C8
:102CC00096069601960596039607560056045602F8
:102CD00056065601560556035607D600D604D602A8
:102CE000D606D601D605D603D607360036043602F8
:102CF00036063601360536033607B600B604B60288
:102D0000B606B601B605B603B607760076047602B7
:102D100076067601760576037607F600F604F60267
:102D2000F606F601F605F603F6070E000E040E028F
:102D30000E060E010E050E030E078E008E048E0287
:102D40008E068E018E058E038E074E004E044E02B7
:102D50004E064E014E054E034E07CE00CE04CE0267
:102D6000CE06CE01CE05CE03CE072E002E042E02B7
:102D70002E062E012E052E032E07AE00AE04AE0247
:102D8000AE06AE01AE05AE03AE076E006E046E0277
:102D90006E066E016E056E036E07EE00EE04EE0227
:102DA000EE06EE01EE05EE03EE071E001E041E0207
:102DB0001E061E011E051E031E079E009E049E0287
:102DC0009E069E019E059E039E075E005E045E02B7
:102DD0005E065E015E055E035E07DE00DE04DE0267
:102DE000DE06DE01DE05DE03DE073E003E043E02B7
:102DF0003E063E013E053E033E07BE00BE04BE0247
:102E0000BE06BE01BE05BE03BE077E007E047E0276
:102E10007E067E017E057E037E07FE00FE04FE0226
:102E2000FE06FE01FE05FE03FE070100FFFFFF7F19
:102E30000000000021F6FF7FF543320085D8FF7FB8
:102E4000E38764002CA7FF7FC1CB96001662FF7F4B
:102E5000880FC9004209FF7F2F53FB00B29CFE7F01
:102E6000B0962D01641CFE7F03DA5F015A88FD7F56
:102E70001F1D920193E0FC7FFE5FC4010F25FC7FC4
:102E800096A2F601CE55FB7FE1E42802D172FA7FCB
:102E9000D7265B02177CF97F70688D02A171F87FDD
:102EA000A4A9BF026F53F77F6BEAF1028221F67F7C
:102EB000BF2A2403D8DBF47F966A56037382F37F1C
:102EC000E9A988035315F27FB1E8BA037794F07F3C
:102ED000E626ED03E1FFEE7F7F641F049057ED7F50
:102EE00076A15104859BEB7FC3DD8304C0CBE97FD2
:102EF0005D19B60440E8E77F3D54E80408F1E57F3A
:102F00005C8E1A0516E6E37FB0C74C056BC7E17F00
:102F100034007F050895DF7FDF37B105EC4EDD7F9C
:102F2000A96EE30518F5DA7F8AA415068D87D87F88
:102F30007CD947064B06D67F750D7A065271D37F32
:102F40006F40AC06A3C8D07F6172DE063E0CCE7F18
:102F500044A31007233CCB7F10D342075358C87FAC
:102F6000BE017507CF60C57F452FA7079655C27F65
:102F70009E5BD907A936BF7FC1860B080A04BC7FB8
:102F8000A7B03D08B7BDB87F47D96F08B263B57F1A
:102F90009A00A208FCF5B17F9826D4089474AE7FFD
:102FA0003A4B06097CDFAA7F776E3809B436A77FD3
:102FB00049906A093C7AA37FA7B09C0915AA9F7F14
:102FC00089CFCE093FC69B7FE8EC000ABCCE977F35
:102FD000BC08330A8CC3937FFE22650AAFA48F7F9F
:102FE000A53B970A26728B7FAA52C90AF32B877FCB
:102FF0000568FB0A14D2827FAE7B2D0B8B647E7F2B
:103000009F8D5F0B5AE3797FCE9D910B7F4E757F2D
:1030100035ACC30BFDA5707FCBB8F50BD4E96B7F46
:1030200089C3270C041A677F67CC590C8F36627FDF
:103030005ED38B0C753F5D7F65D8BD0CB634587F71
:1030400075DBEF0C5416537F87DC210D50E44D7F68
:1030500092DB530DAA9E487F8FD8850D6345437F31
:1030600076D3B70D7CD83D7F3FCCE90DF557387F3F
:10307000E3C21B0ED0C3327F5BB74D0E0E1C2D7FFB
:103080009DA97F0EAF60277FA399B10EB491217FD8
:103090006587E30E1EAF1B7FDC72150FEEB8157F40
:1030A000FE5B470F24AF0F7FC642790FC391097FA4
:1030B0002B27AB0FCB60037F2509DD0F3C1CFD7E6A
:1030C000ADE80E1018C4F67EBBC540105F58F07E08
:1030D00047A0721013D9E97E4A78A4103546E37EE2
:1030E000BC4DD610C69FDC7E96200811C6E5D57E65
:1030F000CEF039113718CF7E5FBE6B111A37C87EFC
:1031000040899D116F42C17E6A51CF11393ABA7E12
:10311000D4160112771EB37E78D932122CEFAB7E13
:103120004E99641258ACA47E4D569612FC559D7E65
:103130006E10C81219EC957EAAC7F912B16E8E7E78
:10314000F97B2B13C5DD867E532D5D1356397F7EAB
:10315000B0DB8E136581777E0A87C013F3B56F7E6F
:10316000572FF21302D7677E92D4231493E45F7E25
:10317000B1765514A6DE577EAD1587143EC54F7E39
:103180007FB1B8145B98477E1F4AEA14FE573F7E12
:1031900085DF1B152A04377EAA714D15DF9C2E7E14
:1031A00086007F151E22267E118CB015E9931D7EA8
:1031B0004414E21542F2147E17991316293D0C7E31
:1031C000831A45169F74037E7F987616A798FA7D1A
:1031D0000513A81642A9F17D0C8AD91670A6E87DC0
:1031E0008DFD0A173490DF7D806D3C178E66D67D8D
:1031F000DED96D178129CD7D9F429F170DD9C37DE3
:10320000BBA7D0173475BA7D2C090218F7FDB07D25
:10321000E86633185973A77DE9C064185AD59D7DB7
:1032200027179618FB23947D9B69C7183F5F8A7DFB
:103230003CB8F8182787807D03032A19B59B767D53
:10324000E9495B19E99C6C7DE68C8C19C58A627D25
:10325000F2CBBD194C65587D0607EF197E2C4E7DCB
:103260001B3E201A5EE0437D2771511AEC80397DA8
:1032700025A0821A2A0E2F7D0CCBB31A1A88247D22
:10328000D6F1E41ABEEE197D7914161B18420F7D93
:10329000EF32471B2882047D304D781BF0AEF97C5D
:1032A0003463A91B73C8EE7CF574DA1BB1CEE37CE2
:1032B0006A820B1CADC1D87C8C8B3C1C68A1CD7C78
:1032C00053906D1CE56DC27CB8909E1C2427B77C82
:1032D000B38CCF1C27CDAB7C3C84001DF15FA07C60
:1032E0004D77311D82DF947CDD65621DDD4B897C6D
:1032F000E54F931D04A57D7C5D35C41DF8EA717C06
:103300003F16F51DBB1D667C81F2251E4F3D5A7C84
:103310001ECA561EB6494E7C0C9D871EF242427C48
:10332000466BB81E0429367CC234E91EEEFB297CAC
:103330007BF9191FB2BB1D7C67B94A1F5368117C0A
:1033400080747B1FD101057CBF2AAC1F3088F87BBD
:103350001ADCDC1F70FBEB7B8C880D20945BDF7B21
:103360000D303E209EA8D27B95D26E208FE2C57B89
:103370001C709F206A09B97B9B08D020311DAC7B53
:103380000B9C0021E51D9F7B652A3121890B927BD7
:103390009FB361211EE6847BB4379221A8AD777B71
:1033A0009CB6C22127626A7B4E30F3219D035D7B70
:1033B000C5A423220E924F7BF81354227A0D427B30
:1033C000DF7D8422E475347B74E2B4224FCB267B0C
:1033D000AE41E522BB0D197B879B15232C3D0B7B52
:1033E000F7EF4523A359FD7AF73E76232363EF7A5F
:1033F0007E88A623AE59E17A86CCD623453DD37A82
:10340000070B0724EB0DC57AFA433724A3CBB67A12
:10341000577767246E76A87A17A597244F0E9A7A65
:1034200032CDC72448938B7AA1EFF7245B057D7AD0
:103430005D0C28258A646E7A5E235825D8B05F7AA1
:103440009D34882546EA507A1240B825D810427A31
:10345000B545E8258F24337A814518266E25247AD0
:103460006C3F48267713157A70337826ADEE057ACF
:103470008521A82611B7F679A509D826A66CE77983
:10348000C6EB07276F0FD879E3C737276D9FC87939
:10349000F49D6727A41CB979F16D97271587A97941
:1034A000D237C727C3DE997992FBF627B1238A79F1
:1034B00028B92628E0557A798C70562854756A798F
:1034C000B92186280E825A79A5CCB528117C4A7973
:1034D0004A71E52860633A79A10F1529FE372A79E8
:1034E000A2A74429EBF91979453974292CA909793E
:1034F00084C4A329C345F9785849D329B1CFE878C2
:10350000B8C7022AFB46D8789D3F322AA1ABC778BC
:1035100001B1612AA8FDB678DB1B912A103DA6787F
:103520002580C02ADE699578D8DDEF2A1384847857
:10353000EB341F2BB38B737858854E2BBF8062788A
:1035400017CF7D2B3B6351782112AD2B2833407868
:103550006F4EDC2B8BF02E78F9830B2C649B1D783F
:10356000B9B23A2CB8330C78A6DA692C88B9FA7754
:10357000BAFB982CD82CE977ED15C82CAA8DD777F3
:103580003929F72C01DCC5779535262DDF17B4775F
:10359000FB3A552D4841A2776339842D3D589077E9
:1035A000C730B32DC35C7E771E21E22DDB4E6C77D6
:1035B000620A112E882E5A778BEC3F2ECEFB47776E
:1035C00092C76E2EAEB63577709B9D2E2D5F2377FA
:1035D0001E68CC2E4BF51077942DFB2E0E79FE76BF
:1035E000CCEB292F77EAEB76BDA2582F8849D97604
:1035F0006252872F4696C676B2FAB52FB3D0B3760D
:10360000A69BE42FD2F8A07638351330A50E8E761F
:1036100060C7413030127B7617527030760368767F
:1036200055D59E3079E254761451CD303CAF417679
:103630004DC5FB30C3692E76F8312A3111121B7645
:103640000D97583127A8077687F486310A2CF47530
:103650005D4AB531BD9DE0758998E33142FDCC7579
:1036600003DF11329C4AB975C51D4032CF85A5755F
:10367000C7546E32DDAE917502849C32CAC57D7529
:103680006FABCA3298CA697507CBF8324BBD557516
:10369000C2E22633E69D41759AF254336C6C2D7567
:1036A00088FA8233E028197584FAB03345D304755B
:1036B00087F2DE339E6BF0748AE20C34EFF1DB7438
:1036C00087CA3A343A66C77476AA683483C8B27433
:1036D0004F829634CD189E740D52C4341B57897492
:1036E000A719F2347183747417D91F35D19D5F7493
:1036F00056904D353EA64A745D3F7B35BD9C357472
:1037000024E6A83550812074A584D635FA530B746D
:10371000D91A0436C014F673B7A83136A3C3E073C0
:103720003B2E5F36A760CB735CAB8C36D0EBB573AA
:103730001320BA362265A0735A8CE7369ECC8A7362
:103740002AF01437492275737A4B423726665F7325
:10375000469E6F373898497384E89C3783B8337333
:10376000302ACA3709C71D734063F737D0C30773C0
:10377000B0932438D8AEF17276BB51382888DB720A
:103780008EDA7E38C04FC572EFF0AB38A605AF7247
:1037900093FED838DCA9987272030639663C8272AF
:1037A00087FF323948BD6B72C9F25F39842C55727C
:1037B00032DD8C391F8A3E72BBBEB9391CD62772E6
:1037C0005D97E6397D1011721267133A4839FA7124
:1037D000D12D403A7F50E37195EB6C3A2656CC716F
:1037E00057A0993A404AB5710F4CC63AD22C9E71F7
:1037F000B7EEF23ADEFD867147881F3B68BD6F71F8
:10380000BA184C3B736B587107A0783B04084171A0
:10381000291EA53B1E9329711793D13BC50C12712C
:10382000CDFEFD3BFB74FA7042612A3CC6CBE270D0
:1038300070BA563C2711CB704F0A833C2445B370B5
:10384000DA50AF3CC0679B70098EDB3CFE7883701A
:10385000D5C1073DE3786B7039EC333D7167537028
:103860002B0D603DAC443B70A7248C3D9910237018
:10387000A532B83D3BCB0A701F37E43D9674F26F1A
:103880000D32103EAD0CDA6F69233C3E8593C16F5B
:103890002C0B683E2009A96F4FE9933E846D906F11
:1038A000CCBDBF3EB3C0776F9C88EB3EB1025F6F6B
:1038B000B749173F8333466F1801433F2C532D6F91
:1038C000B8AE6E3FAF61146F8F529A3F125FFB6EBE
:1038D00097ECC53F574BE26ECA7CF13F8226C96E1A
:1038E00020031D4098F0AF6E937F48409CA9966ED0
:1038F0001DF2734093517D6EB65A9F407FE8636E10
:1039000057B9CA40656E4A6EFB0DF64049E3306E0A
:103910009A5821412F47176E2E994C411B9AFD6DE5
:10392000B0CF774111DCE36D1AFCA241140DCA6DD2
:10393000641ECE41292DB06D8836F941543C966DF8
:1039400080442442983A7C6D45484F42FA27626D84
:10395000D0417A427E04486D1A31A54227D02D6DA0
:103960001E16D042FA8A136DD4F0FA42FB34F96C79
:1039700035C125432ECEDE6C3C8750439756C46C30
:10398000E1427B433ACEA96C1EF4A5431C358F6CF3
:10399000EC9AD0433F8B746C4537FB43A9D0596CEC
:1039A00023C925445D053F6C7E5050446029246C3A
:1039B00050CD7A44B63C096C933FA544623FEE6B10
:1039C0003FA7CF446A31D36B4F04FA44D012B86B8F
:1039D000BC5624459BE39C6B809E4E45CDA3816BDA
:1039E00093DB78456A53666BF00DA34578F24A6B1A
:1039F0008F35CD45FA802F6B6B52F745F5FE136B73
:103A00007C6421466C6CF86ABD6B4B4664C9DC6A09
:103A100027687546E115C16AB4599F46E851A56A01
:103A20005C40C9467D7D896A1A1CF346A4986D6A7C
:103A3000E6EC1C4761A3516ABCB24647B99D356AA2
:103A4000936D7047B087196A661D9A474A61FD6990
:103A50002EC2C3478C2AE169E65BED477AE3C4696D
:103A600085EA1648188CA869076E40486C248C6952
:103A700064E6694878AC6F69975393484224536968
:103A800098B5BC48CE8B3669620CE64820E31969CC
:103A9000EE570F493D2AFD68369838492961E0689C
:103AA00032CD6149E987C368DEF68A49819EA668FE
:103AB0003315B449F5A489682A28DD494B9B6C6805
:103AC000BD2F064A86814F68E52B2F4AAA573268D8
:103AD0009D1C584ABE1D1568DE01814AC4D3F76794
:103AE000A1DBA94AC279DA67E1A9D24ABC0FBD6756
:103AF000976CFB4AB7959F67BD23244BB60B826733
:103B00004DCF4C4BC07164673F6F754BD7C746674D
:103B10008F039E4B020E2967368CC64B43440B67BE
:103B20002D09EF4BA16AED666E7A174C1F81CF66A7
:103B3000F3DF3F4CC387B166B639684C907E93661D
:103B4000B187904C8C657566DDC9B84CBB3C576637
:103B50003400E14C22043966B02A094DC5BB1A660F
:103B60004B49314DA963FC65FE5B594DD3FBDD65C7
:103B7000C462814D4784BF65965DA94D0BFDA0656C
:103B80006E4CD14D22668265452FF94D92BF63651B
:103B90001706214E5F094565DCD0484E8E432665E9
:103BA0008F8F704E246E07652942984E2689E864EF
:103BB000A4E8BF4E9894C964FA82E74E7F90AA6445
:103BC00026110F4FDF7C8B642093364FBF596C64F6
:103BD000E3085E4F22274D646872854F0DE52D6422
:103BE000ABCFAC4F85930E64A320D44F8F32EF63DD
:103BF0004D65FB4F30C2CF63A09D22506D42B06334
:103C000099C949504AB390632FE97050CC1471633D
:103C10005EFC9750F86651631F03BF50D4A931630F
:103C20006CFDE55063DD116340EB0C51AC01F262B9
:103C300094CC3351B216D26262A15A517B1CB2624B
:103C4000A46981510C1392625525A85169FA7162D9
:103C50006ED4CE5197D25162E976F5519D9B316277
:103C6000C10C1C527D551162EF9542523E00F1612C
:103C70006E126952E59BD06137828F527628B0610F
:103C800045E5B552F6A58F61923BDC526B146F612E
:103C900017850253D9734E61D0C1285346C42D6194
:103CA000B5F14E53B7050D61C11475533038EC6052
:103CB000EF2A9B53B65BCB603834C1534F70AA6078
:103CC0009730E7530076896005200D54CE6C68600C
:103CD0007D023354BE544760F9D75854D52D266021
:103CE00073A07E5418F80460E55BA4548DB3E35FC1
:103CF0004A0ACA543860C25F9CABEF541EFEA05FF4
:103D0000D43F1555468D7F5FEDC63A55B30D5E5FC6
:103D1000E24060556B7F3C5FACAD855573E21A5F46
:103D2000460DAB55D136F95EAA5FD055897CD75E7A
:103D3000D2A4F555A1B3B55EB8DC1A561FDC935E6C
:103D40005707405606F6715EAA2465565D01505E1F
:103D5000A9348A5628FE2D5E5037AF566EEC0B5EA6
:103D6000992CD45632CCE95D7E14F9567C9DC75D02
:103D7000F9EE1D574E60A55D05BC4257B014835D3A
:103D80009D7B6757A6BA605DB92D8C5736523E5D54
:103D900056D2B05765DB1B5D6C69D5573856F95C58
:103DA000F7F2F957B4C2D65CF16E1E58DF20B45C4E
:103DB00054DD4258BF70915C1B3E675858B26E5C30
:103DC0003F918B58B0E54B5CBCD6AF58CC0A295C10
:103DD0008C0ED458B221065CA938F858672AE35BE8
:103DE0000E551C59F024C05BB463405953119D5BC0
:103DF0009764645996EF795BB1578859BDBF565B9C
:103E0000FD3CAC59CE81335B7414D059CF35105B77
:103E100012DEF359C4DBEC5AD099175AB473C95A5D
:103E2000AA473B5AA4FDA55A9AE75E5A9A79825A44
:103E30009A79825A9AE75E5AA4FDA55AAA473B5A34
:103E4000B473C95AD099175AC4DBEC5A12DEF3592D
:103E5000CF35105B7414D059CE81335BFD3CAC5927
:103E6000BDBF565BB157885996EF795B976464592B
:103E700053119D5BB4634059F024C05B0E551C592F
:103E8000672AE35BA938F858B221065C8C0ED45837
:103E9000CC0A295CBCD6AF58B0E54B5C3F918B583F
:103EA00058B26E5C1B3E6758BF70915C54DD42583F
:103EB000DF20B45CF16E1E58B4C2D65CF7F2F9573D
:103EC0003856F95C6C69D55765DB1B5D56D2B05727
:103ED00036523E5DB92D8C57A6BA605D9D7B675703
:103EE000B014835D05BC42574E60A55DF9EE1D57C9
:103EF0007C9DC75D7E14F95632CCE95D992CD45671
:103F00006EEC0B5E5037AF5628FE2D5EA9348A56F4
:103F10005D01505EAA24655606F6715E570740564D
:103F20001FDC935EB8DC1A56A1B3B55ED2A4F5557A
:103F3000897CD75EAA5FD055D136F95E460DAB5568
:103F400073E21A5FACAD85556B7F3C5FE240605514
:103F5000B30D5E5FEDC63A55468D7F5FD43F155574
:103F60001EFEA05F9CABEF543860C25F4A0ACA5481
:103F70008DB3E35FE55BA45418F8046073A07E542E
:103F8000D52D2660F9D75854BE5447607D0233546E
:103F9000CE6C686005200D54007689609730E75339
:103FA0004F70AA603834C153B65BCB60EF2A9B5385
:103FB0003038EC60C1147553B7050D61B5F14E533F
:103FC00046C42D61D0C12853D9734E611785025361
:103FD0006B146F61923BDC52F6A58F6145E5B552DB
:103FE0007628B06137828F52E59BD0616E1269529C
:103FF0003E00F161EF9542527D551162C10C1C5299
:104000009D9B3162E976F55197D251626ED4CE51C3
:1040100069FA71625525A8510C139262A469815105
:104020007B1CB26262A15A51B216D26294CC335157
:10403000AC01F26240EB0C5163DD11636CFDE550A5
:10404000D4A931631F03BF50F86651635EFC9750DB
:10405000CC1471632FE970504AB3906399C94950E9
:104060006D42B063A09D225030C2CF634D65FB4FBF
:104070008F32EF63A320D44F85930E64ABCFAC4F48
:104080000DE52D646872854F22274D64E3085E4F6D
:10409000BF596C642093364FDF7C8B6426110F4F21
:1040A0007F90AA64FA82E74E9894C964A4E8BF4E50
:1040B0002689E8642942984E246E07658F8F704EDA
:1040C0008E432665DCD0484E5F0945651706214EB4
:1040D00092BF6365452FF94D226682656E4CD14DC6
:1040E0000BFDA065965DA94D4784BF65C462814DF7
:1040F000D3FBDD65FE5B594DA963FC654B49314D32
:10410000C5BB1A66B02A094D220439663400E14C59
:10411000BB3C5766DDC9B84C8C657566B187904C61
:10412000907E9366B639684CC387B166F3DF3F4C27
:104130001F81CF666E7A174CA16AED662D09EF4B91
:1041400043440B67368CC64B020E29678F039E4B88
:10415000D7C746673F6F754BC07164674DCF4C4BF7
:10416000B60B8267BD23244BB7959F67976CFB4ABC
:10417000BC0FBD67E1A9D24AC279DA67A1DBA94ABF
:10418000C4D3F767DE01814ABE1D15689D1C584ADD
:10419000AA573268E52B2F4A86814F68BD2F064A01
:1041A0004B9B6C682A28DD49F5A489683315B4490E
:1041B000819EA668DEF68A49E987C36832CD6149E7
:1041C0002961E068369838493D2AFD68EE570F4965
:1041D00020E31969620CE648CE8B366998B5BC4875
:1041E000422453699753934878AC6F6964E66948F1
:1041F0006C248C69076E4048188CA86985EA1648BB
:104200007AE3C469E65BED478C2AE1692EC2C347B5
:104210004A61FD69661D9A47B087196A936D7047B8
:10422000B99D356ABCB2464761A3516AE6EC1C47AA
:10423000A4986D6A1A1CF3467D7D896A5C40C94664
:10424000E851A56AB4599F46E115C16A27687546C9
:1042500064C9DC6ABD6B4B466C6CF86A7C642146B1
:10426000F5FE136B6B52F745FA802F6B8F35CD45FA
:1042700078F24A6BF00DA3456A53666B93DB784581
:10428000CDA3816B809E4E459BE39C6BBC56244521
:10429000D012B86B4F04FA446A31D36B3FA7CF44B6
:1042A000623FEE6B933FA544B63C096C50CD7A4417
:1042B0006029246C7E5050445D053F6C23C9254421
:1042C000A9D0596C4537FB433F8B746CEC9AD043B3
:1042D0001C358F6C1EF4A5433ACEA96CE1427B439A
:1042E0009756C46C3C8750432ECEDE6C35C12543B7
:1042F000FB34F96CD4F0FA42FA8A136D1E16D042E0
:1043000027D02D6D1A31A5427E04486DD0417A42E6
:10431000FA27626D45484F42983A7C6D80442442AA
:10432000543C966D8836F941292DB06D641ECE41FE
:10433000140DCA6D1AFCA24111DCE36DB0CF7741B8
:104340001B9AFD6D2E994C412F47176E9A582141AB
:1043500049E3306EFB0DF640656E4A6E57B9CA40B0
:104360007FE8636EB65A9F4093517D6E1DF2734095
:104370009CA9966E937F484098F0AF6E20031D4035
:104380008226C96ECA7CF13F574BE26E97ECC53F5F
:10439000125FFB6E8F529A3FAF61146FB8AE6E3FE3
:1043A0002C532D6F1801433F8333466FB749173F96
:1043B000B1025F6F9C88EB3EB3C0776FCCBDBF3E50
:1043C000846D906F4FE9933E2009A96F2C0B683ED6
:1043D0008593C16F69233C3EAD0CDA6F0D32103E00
:1043E0009674F26F1F37E43D3BCB0A70A532B83D9F
:1043F00099102370A7248C3DAC443B702B0D603D7D
:104400007167537039EC333DE3786B70D5C1073D6C
:10441000FE788370098EDB3CC0679B70DA50AF3C3E
:104420002445B3704F0A833C2711CB7070BA563CB9
:10443000C6CBE27042612A3CFB74FA70CDFEFD3BB4
:10444000C50C12711793D13B1E932971291EA53BF0
:104450000408417107A0783B736B5871BA184C3B44
:1044600068BD6F7147881F3BDEFD8671B7EEF23A7B
:10447000D22C9E710F4CC63A404AB57157A0993A5A
:104480002656CC7195EB6C3A7F50E371D12D403AB2
:104490004839FA711267133A7D1011725D97E63947
:1044A0001CD62772BBBEB9391F8A3E7232DD8C39E9
:1044B000842C5572C9F25F3948BD6B7287FF32395F
:1044C000663C827272030639DCA9987293FED83872
:1044D000A605AF72EFF0AB38C04FC5728EDA7E38EA
:1044E0002888DB7276BB5138D8AEF172B09324388D
:1044F000D0C307734063F73709C71D73302ACA3723
:1045000083B8337384E89C3738984973469E6F3775
:1045100026665F737A4B4237492275732AF0143747
:104520009ECC8A735A8CE7362265A0731320BA3664
:10453000D0EBB5735CAB8C36A760CB733B2E5F368C
:10454000A3C3E073B7A83136C014F673D91A043682
:10455000FA530B74A584D6355081207424E6A8350F
:10456000BD9C35745D3F7B353EA64A7456904D35F3
:10457000D19D5F7417D91F3571837474A719F234F4
:104580001B5789740D52C434CD189E744F829634D3
:1045900083C8B27476AA68343A66C77487CA3A3454
:1045A000EFF1DB748AE20C349E6BF07487F2DE3339
:1045B00045D3047584FAB033E028197588FA82333C
:1045C0006C6C2D759AF25433E69D4175C2E2263328
:1045D0004BBD557507CBF83298CA69756FABCA32B7
:1045E000CAC57D7502849C32DDAE9175C7546E32AA
:1045F000CF85A575C51D40329C4AB97503DF1132C0
:1046000042FDCC758998E331BD9DE0755D4AB531B9
:104610000A2CF47587F4863127A807760D97583150
:1046200011121B76F8312A31C3692E764DC5FB3045
:104630003CAF41761451CD3079E2547655D59E3059
:10464000760368761752703030127B7660C741303F
:10465000A50E8E7638351330D2F8A076A69BE42FBF
:10466000B3D0B376B2FAB52F4696C6766252872F8C
:104670008849D976BDA2582F77EAEB76CCEB292F63
:104680000E79FE76942DFB2E4BF510771E68CC2EFE
:104690002D5F2377709B9D2EAEB6357792C76E2E19
:1046A000CEFB47778BEC3F2E882E5A77620A112E6D
:1046B000DB4E6C771E21E22DC35C7E77C730B32DB5
:1046C0003D5890776339842D4841A277FB3A552DA8
:1046D000DF17B4779535262D01DCC5773929F72CFE
:1046E000AA8DD777ED15C82CD82CE977BAFB982C72
:1046F00088B9FA77A6DA692CB8330C78B9B23A2CB3
:10470000649B1D78F9830B2C8BF02E786F4EDC2B7D
:10471000283340782112AD2B3B63517817CF7D2B86
:10472000BF80627858854E2BB38B7378EB341F2B88
:1047300013848478D8DDEF2ADE6995782580C02A35
:10474000103DA678DB1B912AA8FDB67801B1612A3D
:10475000A1ABC7789D3F322AFB46D878B8C7022A5A
:10476000B1CFE8785849D329C345F97884C4A3293F
:104770002CA9097945397429EBF91979A2A744299B
:10478000FE372A79A10F152960633A794A71E52825
:10479000117C4A79A5CCB5280E825A79B921862890
:1047A00054756A798C705628E0557A7928B926288C
:1047B000B1238A7992FBF627C3DE9979D237C727CE
:1047C0001587A979F16D9727A41CB979F49D6727FE
:1047D0006D9FC879E3C737276F0FD879C6EB0727D6
:1047E000A66CE779A509D82611B7F6798521A82600
:1047F000ADEE057A703378267713157A6C3F48262C
:104800006E25247A814518268F24337AB545E8250C
:10481000D810427A1240B82546EA507A9D3488254D
:10482000D8B05F7A5E2358258A646E7A5D0C28259D
:104830005B057D7AA1EFF72448938B7A32CDC724AC
:104840004F0E9A7A17A597246E76A87A5777672421
:10485000A3CBB67AFA433724EB0DC57A070B0724AE
:10486000453DD37A86CCD623AE59E17A7E88A623FD
:104870002363EF7AF73E7623A359FD7AF7EF4523BA
:104880002C3D0B7B879B1523BB0D197BAE41E5228D
:104890004FCB267B74E2B422E475347BDF7D842227
:1048A0007A0D427BF81354220E924F7BC5A423222B
:1048B0009D035D7B4E30F32127626A7B9CB6C2214B
:1048C000A8AD777BB43792211EE6847B9FB361212C
:1048D000890B927B652A3121E51D9F7B0B9C002172
:1048E000311DAC7B9B08D0206A09B97B1C709F20CE
:1048F0008FE2C57B95D26E209EA8D27B0D303E20E4
:10490000945BDF7B8C880D2070FBEB7B1ADCDC1F5B
:104910003088F87BBF2AAC1FD101057C80747B1FD7
:104920005368117C67B94A1FB2BB1D7C7BF9191F04
:10493000EEFB297CC234E91E0429367C466BB81E86
:10494000F242427C0C9D871EB6494E7C1ECA561E02
:104950004F3D5A7C81F2251EBB1D667C3F16F51D1E
:10496000F8EA717C5D35C41D04A57D7CE54F931D7F
:10497000DD4B897CDD65621D82DF947C4D77311DC6
:10498000F15FA07C3C84001D27CDAB7CB38CCF1C99
:104990002427B77CB8909E1CE56DC27C53906D1C9B
:1049A00068A1CD7C8C8B3C1CADC1D87C6A820B1C71
:1049B000B1CEE37CF574DA1B73C8EE7C3463A91BBB
:1049C000F0AEF97C304D781B2882047DEF32471B16
:1049D00018420F7D7914161BBEEE197DD6F1E41A2C
:1049E0001A88247D0CCBB31A2A0E2F7D25A0821A9B
:1049F000EC80397D2771511A5EE0437D1B3E201A01
:104A00007E2C4E7D0607EF194C65587DF2CBBD1903
:104A1000C58A627DE68C8C19E99C6C7DE9495B193D
:104A2000B59B767D03032A192787807D3CB8F8184B
:104A30003F5F8A7D9B69C718FB23947D27179618D3
:104A40005AD59D7DE9C064185973A77DE86633186F
:104A5000F7FDB07D2C0902183475BA7DBBA7D017BD
:104A60000DD9C37D9F429F178129CD7DDED96D175A
:104A70008E66D67D806D3C173490DF7D8DFD0A17E4
:104A800070A6E87D0C8AD91642A9F17D0513A816F7
:104A9000A798FA7D7F9876169F74037E831A451631
:104AA000293D0C7E1799131642F2147E4414E21528
:104AB000E9931D7E118CB0151E22267E86007F157F
:104AC000DF9C2E7EAA714D152A04377E85DF1B15CB
:104AD000FE573F7E1F4AEA145B98477E7FB1B814A9
:104AE0003EC54F7EAD158714A6DE577EB1765514B0
:104AF00093E45F7E92D4231402D7677E572FF2137C
:104B0000F3B56F7E0A87C0136581777EB0DB8E13A5
:104B100056397F7E532D5D13C5DD867EF97B2B13C1
:104B2000B16E8E7EAAC7F91219EC957E6E10C8126E
:104B3000FC559D7E4D56961258ACA47E4E9964123B
:104B40002CEFAB7E78D93212771EB37ED4160112C9
:104B5000393ABA7E6A51CF116F42C17E40899D11A8
:104B60001A37C87E5FBE6B113718CF7ECEF0391171
:104B7000C6E5D57E96200811C69FDC7EBC4DD610BA
:104B80003546E37E4A78A41013D9E97E47A0721017
:104B90005F58F07EBBC5401018C4F67EADE80E101D
:104BA0003C1CFD7E2509DD0FCB60037F2B27AB0F5F
:104BB000C391097FC642790F24AF0F7FFE5B470F79
:104BC000EEB8157FDC72150F1EAF1B7F6587E30EF5
:104BD000B491217FA399B10EAF60277F9DA97F0E6D
:104BE0000E1C2D7F5BB74D0ED0C3327FE3C21B0E70
:104BF000F557387F3FCCE90D7CD83D7F76D3B70D94
:104C00006345437F8FD8850DAA9E487F92DB530D65
:104C100050E44D7F87DC210D5416537F75DBEF0C7C
:104C2000B634587F65D8BD0C753F5D7F5ED38B0C65
:104C30008F36627F67CC590C041A677F89C3270CB3
:104C4000D4E96B7FCBB8F50BFDA5707F35ACC30BFA
:104C50007F4E757FCE9D910B5AE3797F9F8D5F0BC1
:104C60008B647E7FAE7B2D0B14D2827F0568FB0A9E
:104C7000F32B877FAA52C90A26728B7FA53B970A1E
:104C8000AFA48F7FFE22650A8CC3937FBC08330AD2
:104C9000BCCE977FE8EC000A3FC69B7F89CFCE0948
:104CA00015AA9F7FA7B09C093C7AA37F49906A0907
:104CB000B436A77F776E38097CDFAA7F3A4B0609A6
:104CC0009474AE7F9826D408FCF5B17F9A00A208B0
:104CD000B263B57F47D96F08B7BDB87FA7B03D08AD
:104CE0000A04BC7FC1860B08A936BF7F9E5BD9072B
:104CF0009655C27F452FA707CF60C57FBE017507B8
:104D00005358C87F10D34207233CCB7F44A31007DE
:104D10003E0CCE7F6172DE06A3C8D07F6F40AC062A
:104D20005271D37F750D7A064B06D67F7CD9470624
:104D30008D87D87F8AA4150618F5DA7FA96EE3055A
:104D4000EC4EDD7FDF37B1050895DF7F34007F054E
:104D50006BC7E17FB0C74C0516E6E37F5C8E1A0592
:104D600008F1E57F3D54E80440E8E77F5D19B604AB
:104D7000C0CBE97FC3DD8304859BEB7F76A1510423
:104D80009057ED7F7F641F04E1FFEE7FE626ED0381
:104D90007794F07FB1E8BA035315F27FE9A988034D
:104DA0007382F37F966A5603D8DBF47FBF2A24030D
:104DB0008221F67F6BEAF1026F53F77FA4A9BF024D
:104DC000A171F87F70688D02177CF97FD7265B028E
:104DD000D172FA7FE1E42802CE55FB7F96A2F6015C
:104DE0000F25FC7FFE5FC40193E0FC7F1F1D920135
:104DF0005A88FD7F03DA5F01641CFE7FB0962D01A7
:104E0000B29CFE7F2F53FB004209FF7F880FC90031
:104E10001662FF7FC1CB96002CA7FF7FE38764005B
:104E200085D8FF7FF543320021F6FF7F00000000A8
:104E3000FFFFFF7F0ABCCDFF21F6FF7F1D789BFFA0
:104E400085D8FF7F3E3469FF2CA7FF7F78F036FFBF
:104E50001662FF7FD0AC04FF4209FF7F4F69D2FE8C
:104E6000B29CFE7FFC25A0FE641CFE7FE0E26DFE8E
:104E70005A88FD7F01A03BFE93E0FC7F695D09FE3F
:104E80000F25FC7F1E1BD7FDCE55FB7F28D9A4FD27
:104E9000D172FA7F8F9772FD177CF97F5B5640FDC8
:104EA000A171F87F94150EFD6F53F77F41D5DBFCA0
:104EB0008221F67F6995A9FCD8DBF47F165677FC32
:104EC0007382F37F4E1745FC5315F27F19D912FCFC
:104ED0007794F07F809BE0FBE1FFEE7F895EAEFB85
:104EE0009057ED7F3C227CFB859BEB7FA2E649FB44
:104EF000C0CBE97FC2AB17FB40E8E77FA471E5FABE
:104F000008F1E57F4F38B3FA16E6E37FCBFF80FA6E
:104F10006BC7E17F20C84EFA0895DF7F56911CFAD7
:104F2000EC4EDD7F755BEAF918F5DA7F8326B8F978
:104F30008D87D87F8AF285F94B06D67F90BF53F9CB
:104F40005271D37F9E8D21F9A3C8D07FBB5CEFF84F
:104F50003E0CCE7FEF2CBDF8233CCB7F41FE8AF880
:104F60005358C87FBAD058F8CF60C57F61A426F8DF
:104F70009655C27F3E79F4F7A936BF7F584FC2F7E6
:104F80000A04BC7FB82690F7B7BDB87F65FF5DF710
:104F9000B263B57F67D92BF7FCF5B17FC5B4F9F6DD
:104FA0009474AE7F8891C7F67CDFAA7FB66F95F6C2
:104FB000B436A77F584F63F63C7AA37F763031F63C
:104FC00015AA9F7F1713FFF53FC69B7F43F7CCF5CC
:104FD000BCCE977F01DD9AF58CC3937F5AC468F5E8
:104FE000AFA48F7F55AD36F526728B7FFA9704F507
:104FF000F32B877F5184D2F414D2827F6072A0F4A5
:105000008B647E7F31626EF45AE3797FCA533CF43D
:105010007F4E757F34470AF4FDA5707F763CD8F348
:10502000D4E96B7F9833A6F3041A677FA12C74F33D
:105030008F36627F9A2742F3753F5D7F8A2410F393
:10504000B634587F7823DEF25416537F6D24ACF2C9
:1050500050E44D7F70277AF2AA9E487F892C48F24F
:105060006345437FC03316F27CD83D7F1C3DE4F19D
:10507000F557387FA548B2F1D0C3327F625680F130
:105080000E1C2D7F5C664EF1AF60277F9A781CF175
:10509000B491217F238DEAF01EAF1B7F01A4B8F0ED
:1050A000EEB8157F39BD86F024AF0F7FD4D854F009
:1050B000C391097FDAF622F0CB60037F5217F1EF3C
:1050C0003C1CFD7E443ABFEF18C4F67EB85F8DEFFE
:1050D0005F58F07EB5875BEF13D9E97E43B229EFC5
:1050E0003546E37E6ADFF7EEC69FDC7E310FC6EE03
:1050F000C6E5D57EA04194EE3718CF7EBF7662EE2E
:105100001A37C87E95AE30EE6F42C17E2BE9FEEDB8
:10511000393ABA7E8726CDED771EB37EB2669BED17
:105120002CEFAB7EB2A969ED58ACA47E91EF37EDC0
:10513000FC559D7E553806ED19EC957E0684D4EC21
:10514000B16E8E7EACD2A2ECC5DD867E4F2471ECB2
:1051500056397F7EF5783FEC6581777EA8D00DECDF
:10516000F3B56F7E6D2BDCEB02D7677E4E89AAEB21
:1051700093E45F7E52EA78EBA6DE577E804E47EBE3
:105180003EC54F7EE0B515EB5B98477E7A20E4EA9A
:10519000FE573F7E558EB2EA2A04377E79FF80EAB9
:1051A000DF9C2E7EEE734FEA1E22267EBBEB1DEAAD
:1051B000E9931D7EE866ECE942F2147E7CE5BAE9EB
:1051C000293D0C7E806789E99F74037EFBEC57E9DB
:1051D000A798FA7DF47526E942A9F17D7302F5E8F6
:1051E00070A6E87D7F92C3E83490DF7D212692E8A7
:1051F0008E66D67D60BD60E88129CD7D44582FE85C
:105200000DD9C37DD3F6FDE73475BA7D1799CCE788
:10521000F7FDB07D163F9BE75973A77DD8E869E796
:105220005AD59D7D649638E7FB23947DC34707E7F5
:105230003F5F8A7DFCFCD5E62787807D16B6A4E615
:10524000B59B767D197373E6E99C6C7D0D3442E65F
:10525000C58A627DF9F810E64C65587DE4C1DFE54A
:105260007E2C4E7DD88EAEE55EE0437DDA5F7DE537
:10527000EC80397DF3344CE52A0E2F7D2A0E1BE598
:105280001A88247D86EBE9E4BEEE197D10CDB8E4E2
:1052900018420F7DCFB287E42882047DCB9C56E470
:1052A000F0AEF97C0A8B25E473C8EE7C957DF4E3BF
:1052B000B1CEE37C7374C3E3ADC1D87CAC6F92E331
:1052C00068A1CD7C476F61E3E56DC27C4C7330E330
:1052D0002427B77CC37BFFE227CDAB7CB288CEE22C
:1052E000F15FA07C229A9DE282DF947C1AB06CE28E
:1052F000DD4B897CA2CA3BE204A57D7CC1E90AE2C0
:10530000F8EA717C7E0DDAE1BB1D667CE135A9E12E
:105310004F3D5A7CF36278E1B6494E7CB99447E13F
:10532000F242427C3DCB16E10429367C8406E6E05D
:10533000EEFB297C9846B5E0B2BB1D7C7F8B84E0F8
:105340005368117C41D553E0D101057CE52323E06E
:105350003088F87B7377F2DF70FBEB7BF2CFC1DF35
:10536000945BDF7B6A2D91DF9EA8D27BE38F60DFA9
:105370008FE2C57B64F72FDF6A09B97BF463FFDE38
:10538000311DAC7B9BD5CEDEE51D9F7B604C9EDE48
:10539000890B927B4BC86DDE1EE6847B63493DDE44
:1053A000A8AD777BB1CF0CDE27626A7B3A5BDCDD90
:1053B0009D035D7B07ECABDD0E924F7B20827BDD96
:1053C0007A0D427B8B1D4BDDE475347B51BE1ADDBB
:1053D0004FCB267B7864EADCBB0D197B0810BADC66
:1053E0002C3D0B7B08C189DCA359FD7A817759DC00
:1053F0002363EF7A793329DCAE59E17AF8F4F8DBEC
:10540000453DD37A05BCC8DBEB0DC57AA88898DB8F
:10541000A3CBB67AE85A68DB6E76A87ACD3238DB51
:105420004F0E9A7A5E1008DB48938B7AA2F3D7DA94
:105430005B057D7AA1DCA7DA8A646E7A62CB77DAC3
:10544000D8B05F7AEDBF47DA46EA507A4ABA17DA3F
:10545000D810427A7EBAE7D98F24337A93C0B7D96D
:105460006E25247A8FCC87D97713157A7ADE57D9AF
:10547000ADEE057A5BF627D911B7F6793914F8D86D
:10548000A66CE7791C38C8D86F0FD8790C6298D809
:105490006D9FC8790F9268D8A41CB9792DC838D8E7
:1054A0001587A9796D0409D8C3DE9979D746D9D76C
:1054B000B1238A79738FA9D7E0557A7946DE79D7F7
:1054C00054756A795A334AD70E825A79B58E1AD7EB
:1054D000117C4A795EF0EAD660633A795D58BBD6B2
:1054E000FE372A79BAC68BD6EBF919797B3B5CD6A5
:1054F0002CA90979A7B62CD6C345F9784738FDD52C
:10550000B1CFE87862C0CDD5FB46D878FE4E9ED5A7
:10551000A1ABC77824E46ED5A8FDB678DA7F3FD575
:10552000103DA678272210D5DE69957814CBE0D4FB
:1055300013848478A77AB1D4B38B7378E83082D49B
:10554000BF806278DEED52D43B63517890B123D4B2
:1055500028334078067CF4D38BF02E78464DC5D3A3
:10556000649B1D78592596D3B8330C78450467D3CE
:1055700088B9FA7712EA37D3D82CE977C6D608D398
:10558000AA8DD7776ACAD9D201DCC57704C5AAD259
:10559000DF17B4779CC67BD24841A27738CF4CD274
:1055A0003D589077E1DE1DD2C35C7E779EF5EED14B
:1055B000DB4E6C777413C0D1882E5A776D3891D139
:1055C000CEFB47778F6462D1AEB63577E19733D1A2
:1055D0002D5F23776BD204D14BF510773314D6D0DF
:1055E0000E79FE76425DA7D077EAEB769DAD78D056
:1055F0008849D9764D054AD04696C67659641BD05F
:10560000B3D0B376C7CAECCFD2F8A0769F38BECF5E
:10561000A50E8E76E8AD8FCF30127B76AA2A61CFA9
:1056200076036876EBAE32CF79E25476B23A04CFA5
:105630003CAF417608CED5CEC3692E76F268A7CEB0
:1056400011121B76780B79CE27A80776A2B54ACE21
:105650000A2CF47576671CCEBD9DE075FC20EECD5E
:1056600042FDCC753AE2BFCD9C4AB97538AB91CDBD
:10567000CF85A575FD7B63CDDDAE9175905435CD9D
:10568000CAC57D75F83407CD98CA69753D1DD9CC5A
:105690004BBD5575650DABCCE69D417577057DCC51
:1056A0006C6C2D757B054FCCE0281975780D21CCDD
:1056B00045D30475751DF3CB9E6BF0747835C5CB5F
:1056C000EFF1DB74895597CB3A66C774B07D69CB2F
:1056D00083C8B274F2AD3BCBCD189E7458E60DCBA7
:1056E0001B578974E826E0CA71837474A96FB2CA23
:1056F000D19D5F74A2C084CA3EA64A74DB1957CA02
:10570000BD9C35745A7B29CA5081207427E5FBC99A
:10571000FA530B744857CEC9C014F673C4D1A0C94C
:10572000A3C3E073A35473C9A760CB73ECDF45C96F
:10573000D0EBB573A57318C92265A073D60FEBC85B
:105740009ECC8A7385B4BDC849227573BA6190C86E
:1057500026665F737B1763C838984973D0D535C800
:1057600083B83373BF9C08C809C71D73506CDBC76F
:10577000D0C307738944AEC7D8AEF172712581C713
:105780002888DB72100F54C7C04FC5726C0127C741
:10579000A605AF728DFCF9C6DCA998727900CDC65A
:1057A000663C8272360DA0C648BD6B72CD2273C6B0
:1057B000842C5572444146C61F8A3E72A26819C69F
:1057C0001CD62772ED98ECC57D1011722ED2BFC584
:1057D0004839FA716A1493C57F50E371A85F66C5B2
:1057E0002656CC71F0B339C5404AB57148110DC584
:1057F000D22C9E71B877E0C4DEFD867146E7B3C453
:1058000068BD6F71F85F87C4736B5871D7E15AC474
:1058100004084171E86C2EC41E932971320102C440
:10582000C50C1271BD9ED5C3FB74FA708F45A9C318
:10583000C6CBE270B0F57CC32711CB7025AF50C347
:105840002445B370F67124C3C0679B702A3EF8C22A
:10585000FE788370C713CCC2E3786B70D4F29FC21A
:105860007167537058DB73C2AC443B705ACD47C26A
:1058700099102370E0C81BC23BCB0A70F2CDEFC178
:105880009674F26F96DCC3C1AD0CDA6FD3F497C196
:105890008593C16FB0166CC12009A96F334240C116
:1058A000846D906F637714C1B3C0776F48B6E8C05A
:1058B000B1025F6FE7FEBCC08333466F475191C0B2
:1058C0002C532D6F70AD65C0AF61146F68133AC073
:1058D000125FFB6E35830EC0574BE26EDFFCE2BFFA
:1058E0008226C96E6C80B7BF98F0AF6EE20D8CBF98
:1058F0009CA9966E4AA560BF93517D6EA84635BFA0
:105900007FE8636E04F209BF656E4A6E65A7DEBE6E
:1059100049E3306ED166B3BE2F47176E4F3088BE55
:105920001B9AFD6DE5035DBE11DCE36D9BE131BEAD
:10593000140DCA6D77C906BE292DB06D7FBBDBBDC6
:10594000543C966DBAB7B0BD983A7C6D2FBE85BDFC
:10595000FA27626DE5CE5ABD7E04486DE1E92FBDA0
:1059600027D02D6D2C0F05BDFA8A136DCA3EDABC07
:10597000FB34F96CC378AFBC2ECEDE6C1EBD84BC8C
:105980009756C46CE10B5ABC3ACEA96C13652FBC78
:105990001C358F6CBAC804BC3F8B746CDC36DABB28
:1059A000A9D0596C81AFAFBB5D053F6CAF3285BBF1
:1059B0006029246C6CC05ABBB63C096CC05830BB23
:1059C000623FEE6BB0FB05BB6A31D36B43A9DBBA18
:1059D000D012B86B7F61B1BA9BE39C6B6C2487BA21
:1059E000CDA3816B10F25CBA6A53666B70CA32BA8F
:1059F00078F24A6B94AD08BAFA802F6B839BDEB9BC
:105A0000F5FE136B4294B4B96C6CF86AD8978AB9F6
:105A100064C9DC6A4BA660B9E115C16AA3BF36B997
:105A2000E851A56AE6E30CB97D7D896A1913E3B8EC
:105A3000A4986D6A444DB9B861A3516A6C928FB84D
:105A4000B99D356A99E265B8B087196AD13D3CB80D
:105A50004A61FD6919A412B88C2AE1697A15E9B77F
:105A60007AE3C469F891BFB7188CA8699B1996B7F7
:105A70006C248C6968AC6CB778AC6F69674A43B7C3
:105A8000422453699DF319B7CE8B366911A8F0B63D
:105A900020E31969CA67C7B63D2AFD68CD329EB6B4
:105AA0002961E068210975B6E987C368CCEA4BB67D
:105AB000819EA668D5D722B6F5A4896842D0F9B5EB
:105AC0004B9B6C681AD4D0B586814F6862E3A7B54A
:105AD000AA57326821FE7EB5BE1D15685E2456B5F4
